:100000000C94B3000C94D4000C94D4000C94D40041
:100010000C94D4000C943E030C9419030C94D4005B
:100020000C94D4000C94D4000C94D4000C94D40000
:100030000C94D4000C94D4000C94D4000C94D400F0
:100040000C94D4000C94D4000C94D4000C94D400E0
:100050000C94D4000C94D4000C94D4000C94D400D0
:100060000C94D4000C94D4000C94D4000C94D400C0
:100070000C94D4000C94D4000C94D4000C94D400B0
:100080000C94D4000C94D4000C94D4000C94D400A0
:100090000C94D4000C94D4000C94D4000C94D40090
:1000A0000C94D4000C94D4000C94D4000C94D40080
:1000B0000C94D4000C94D4000C94D4000C94D40070
:1000C0000C94D4000C94D4000C94D4000C94D40060
:1000D0000C94D4000C94D4000C94D4000C94D40050
:1000E0000C94D40007634236B79BD8A71A396856D8
:1000F00018AEBAAB558C1D3CB7CC5763BD6DEDFD4A
:10010000753EF6177231BF000000803F0800000006
:10011000BE922449123EABAAAA2ABECDCCCC4C3EFC
:1001200000000080BEABAAAAAA3E00000000BF00EB
:100130000000803F0000000000084178D3BB4387E7
:10014000D1133D190E3CC3BD4282AD2B3E68EC82FB
:1001500076BED98FE1A93E4C80EFFFBE01C4FF7F80
:100160003F000000000011241FBECFEFD1E2DEBF30
:10017000CDBF00E00CBF12E0A0E0B2E0EAECF4E298
:1001800000E00BBF02C007900D92A431B107D9F770
:1001900012E0A4E1B2E001C01D92A233B107E1F781
:1001A0000E94F00E0C9463120C9400003B9A43984A
:1001B000089586B1886088B9089586B1877F88B927
:1001C00008950E94D9008FEF9FE3ABE081509040EB
:1001D000A040E1F700C000000E94DD008FEF9FE328
:1001E000ABE081509040A040E1F700C000000895CE
:1001F0000E94D9008FEF9FEFA0EE81509040A04069
:10020000E1F700C000000E94DD008FEF9FE3ABE04C
:1002100081509040A040E1F700C00000089587B1F0
:10022000876F87B988B1807888B9089586E69EE09F
:100230000197F1F700004098419880E388B9429A0D
:10024000EFEFF7E43197F1F700C000004298E6E6DF
:10025000FEE03197F1F700004098419888B9429A42
:10026000EFEFF7E43197F1F700C000004298E6E6BF
:10027000FEE03197F1F700004098419888B9429A22
:100280008FEF97E40197F1F700C000004298E6E68F
:10029000FEE03197F1F700004098419880E288B97C
:1002A000429A8FEF97E40197F1F700C0000042985F
:1002B000089598B19F7098B998B1282F207F922BFC
:1002C00098B940984198429AEFEFF7E43197F1F7E7
:1002D00000C00000429898B19F7098B998B182957B
:1002E000807F892B88B940984198429A8FEF97E494
:1002F0000197F1F700C00000429808950E9416018E
:1003000086E69EE00197F1F7000088E20E9459011D
:1003100081E00E94590186E00E9459018EE00E940E
:10032000590180E80E945901089598B19F7098B9C9
:1003300098B1282F207F922B98B9409A4198429AE1
:10034000EFEFF7E43197F1F700C00000429898B161
:100350009F7098B998B18295807F892B88B9409A0F
:100360004198429A8FEF97E40197F1F700C000009F
:100370004298089580E80E9459010895CF93DF9331
:10038000EC018881882331F021960E9495018991A2
:100390008823D9F7DF91CF910895823079F08330A7
:1003A00018F48130C9F405C0833069F08430A1F4B9
:1003B0000FC0862F81580E9459010895862F8154BD
:1003C0000E9459010895862F8D560E945901089563
:1003D000862F8D520E94590108950F931F93CF933A
:1003E000DF938A01E901882311F0662319F40E9442
:1003F000BA0102C00E94CD01C530D10571F4C80117
:1004000060E177E20E944F12CB01C09690932602E2
:10041000809325020E94950103C0C430D105B9F430
:10042000C80168EE73E00E944F12CB01709328025E
:10043000609327026AE070E00E944F12C09690938A
:100440003102809330020E94950181E001C080E07A
:10045000C330D10511F08130B1F4C80164E670E019
:100460000E944F12CB0170932802609327026AE02A
:1004700070E00E944F12C09690932D0280932C0240
:100480000E94950181E0C230D10511F08130B1F4B4
:100490002AE030E0C801B9010E944F12CB017093ED
:1004A000280260932702B9010E944F12C0969093D0
:1004B0002B0280932A020E94950181E0C130D10570
:1004C00011F0813061F4C8016AE070E00E944F12BF
:1004D000C09690932F0280932E020E949501C63001
:1004E000D1051CF085E40E949501DF91CF911F9109
:1004F0000F91089510BA11BA1092070110920801D5
:100500000895EAE7F0E0108210927B0080E2809389
:100510007C0080E880BF86E880830895883018F0EA
:1005200098E090937B008770806280937C00EAE77C
:10053000F0E0808180648083808184FFFDCF8091A2
:100540007900EAE7F0E090819061908310927B005F
:100550000895CF93DF93D82FC62F842F0E948E0249
:10056000482F809329028D2F6C2F50E023E030E03C
:100570000E94ED01DF91CF9108950F931F93682F93
:1005800070E080E090E00E94F90F2FEE39EC43E933
:100590005FE30E94EA10B62FA72F382F292F60E0C3
:1005A00070E080E89FE3422F0B2F1A2F232F342F68
:1005B000A90198010E94600F2AE939EF4EE255E443
:1005C0000E94871020E030E040E251E40E94871052
:1005D0000E94C80F882777FD8095982F0E94FB0FF7
:1005E0000E94C80F862F972F23E08132920710F0C8
:1005F00080E293E01F910F91089589E00E948E029E
:100600000E94BD0290932402809323028BE00E94FB
:100610008E020E94BD0290932202809321028DE0FF
:100620000E948E020E94BD029093200280931F02BE
:1006300008951F920F920FB60F9211248F939F93DC
:10064000AF93BF938091170290911802A091190265
:10065000B0911A020196A11DB11D809317029093CB
:100660001802A0931902B0931A02BF91AF919F9103
:100670008F910F900FBE0F901F9018951F920F92A1
:100680000FB60F9211248F939F93AF93BF938091D6
:100690001B0290911C02A0911D02B0911E020196B6
:1006A000A11DB11D80931B0290931C02A0931D02FB
:1006B000B0931E02BF91AF919F918F910F900FBE8B
:1006C0000F901F901895E1E2F1E010828FEF809378
:1006D000250191E090932401109229018093280133
:1006E00010922B0180932A0110922D0180932C01EE
:1006F00089EA809320018BE08083089581B18F6027
:1007000081B982B1807F82B9EAE0F1E080818861BD
:100710008083EBE0F1E08081886180830895259AF1
:100720002D9A0895269A2E9A0895F894EAE6F0E014
:10073000808182608083EC9A7894089592B1907F52
:100740008F70982B92B90895F894EAE6F0E08081D2
:1007500088608083ED9A7894089586E00E949E03D5
:10076000089589E00E949E03089585E00E949E03FB
:1007700008958AE00E949E03089580E00E949E03EF
:1007800008950F931F93CF93BC0180E090E00E94E7
:10079000F90F28E431EE42E850E40E94600F0E9415
:1007A000CD0FDC01CB01A0E0B0E010921702109257
:1007B00018021092190210921A0210921B02109243
:1007C0001C0210921D0210921E02F1E0C0E0409146
:1007D0001702509118026091190270911A0200914B
:1007E0001B0210911C0220911D0230911E02EF2F5E
:1007F000481759076A077B0708F4EC2FEE2349F4E2
:100800004F2F081719072A073B0708F44C2F4423DA
:10081000F1F20E94BD03CF911F910F910895CF93E4
:10082000DF93EC010E94B503CE010E94C103DF916A
:10083000CF9108958093280160932A01089583E061
:100840000E948E028093160282E00E948E028093A4
:10085000150281E00E948E02809314020895CF93C6
:10086000DF93D0E00E941F0481E061E043E00E943A
:10087000A90281E065E042E00E94A90281E069E00E
:1008800041E00E94A9028091150290E08531910516
:1008900044F00E94AD038CED6CED0E941A04C1E09F
:1008A00001C0CD2F8091160290E0853191050CF4A6
:1008B0004BC08091150290E0853191053CF180910B
:1008C000140290E0853191050CF182E061E00E9414
:1008D000CD0180E092E00E94BE010E94BD030E9413
:1008E000D9008FEF9FE7A6E181509040A040E1F74B
:1008F00000C000000E94DD008FEF9FE7A6E181505D
:100900009040A040E1F700C0000095C0CC23E1F486
:100910000E94B50382E862E80E941A040E941F0444
:100920008091160290E084319105C4F78091150200
:1009300090E08531910594F38091140290E0843128
:10094000910564F70E94BD038091140290E0853107
:100950009105F4F0CC23E1F40E94B90382E862E847
:100960000E941A040E941F048091160290E08431B4
:100970009105C4F78091150290E08531910594F3BB
:100980008091140290E08431910564F70E94BD03C8
:100990008091160290E0853191051CF1C13009F576
:1009A0000E94BD0382E061E00E94CD0184E092E0FC
:1009B0000E94BE010E94D9008FEF9FE7A6E18150FF
:1009C0009040A040E1F700C000000E94DD008FEFE2
:1009D0009FE7A6E181509040A040E1F700C00000F1
:1009E0002AC08091140290E0853191050CF43ACF31
:1009F000C13009F037CF0E94BD0382E061E00E9460
:100A0000CD0189E092E00E94BE010E94D9008FEFE3
:100A10009FE7A6E181509040A040E1F700C00000B0
:100A20000E94DD008FEF9FE7A6E181509040A0403B
:100A3000E1F700C00000DF91CF910895CF930E94AD
:100A40001F0481E061E043E00E94A90281E065E0CB
:100A500042E00E94A90281E069E041E00E94A9020F
:100A600080911502853140F00E94AD038CED6CED54
:100A70000E941A04C1E001C0C0E0809116028531D5
:100A800008F444C080911502853140F18091140230
:100A9000853120F182E061E00E94CD0180E092E0AA
:100AA0000E94BE010E94BD030E94D9008FEF9FE704
:100AB000A6E181509040A040E1F700C000000E94F4
:100AC000DD008FEF9FE7A6E181509040A040E1F765
:100AD00000C00000809116028531C0F0CC23B1F433
:100AE0000E94B50382E862E80E941A040E941F0473
:100AF000809116028431D0F7809115028531B0F3D0
:100B000080911402843190F70E94BD0380911402F9
:100B10008531C0F0CC23B1F40E94B90382E862E8C9
:100B20000E941A040E941F04809116028431D0F79B
:100B3000809115028531B0F380911402843190F7D1
:100B40000E94BD0380911602853110F1C13001F57C
:100B50000E94BD0382E061E00E94CD0184E092E04A
:100B60000E94BE010E94D9008FEF9FE7A6E181504D
:100B70009040A040E1F700C000000E94DD008FEF30
:100B80009FE7A6E181509040A040E1F700C000003F
:100B900080911402853110F1C13001F50E94BD032E
:100BA00082E061E00E94CD0189E092E00E94BE01F6
:100BB0000E94D9008FEF9FE7A6E181509040A040AE
:100BC000E1F700C000000E94DD008FEF9FE7A6E183
:100BD00081509040A040E1F700C00000CF910895FF
:100BE000CF93DF93EC010E94B903CE010E94C103B1
:100BF000DF91CF910895E1E8F0E010828CEF8093CF
:100C0000850081E08093840093E0909389008FEFCA
:100C10008093880090938B0080938A0090938D003E
:100C200080938C0090938700809386008BEA80935A
:100C30008000109282008CE08083089510928900D9
:100C4000682F70E080E090E00E94F90F2BE734E11C
:100C50004EEE5FE30E94600F20E030E04CE052E493
:100C60000E94FC0E0E94CD0F6093880008951092A0
:100C70008B00682F70E080E090E00E94F90F2BE776
:100C800034E14EEE5FE30E94600F20E030E04CE084
:100C900052E40E94FC0E0E94CD0F60938A000895DA
:100CA00083E0809389008FEF80938800089583E02C
:100CB00080938B008FEF80938A000895CF93C0E0DC
:100CC0008C2F0E94370689E999E5A1E08150904078
:100CD000A040E1F70000CF5FC73391F7CF910895AF
:100CE000CF93C0E08C2F0E941E0689E999E5A1E010
:100CF00081509040A040E1F70000CF5FC93191F7EB
:100D0000CF910895CF93C0E08C2F0E94370689E9D8
:100D100099E5A1E081509040A040E1F70000CF5F4D
:100D2000C83091F7CF910895CF93C0E08C2F0E94E7
:100D30001E0689E999E5A1E081509040A040E1F7C5
:100D40000000CF5FC53091F7CF9108950E945E06F5
:100D50008FEF9FEFACE281509040A040E1F700C0E0
:100D600000000E9470068FEF9FEFACE28150904030
:100D7000A040E1F700C000000E9482068FEF9FEFC5
:100D8000ACE281509040A040E1F700C0000008951F
:100D90000E945E068FEF9FEFACE281509040A04032
:100DA000E1F700C000000E9494068FEF9FEFACE2D5
:100DB00081509040A040E1F700C000000895EF92FC
:100DC000FF920F931F93CF93DF93EC010E94FD02DC
:100DD0000E941F0480911F029091200220910F0217
:100DE000309110028217930708F033C121E0C03917
:100DF000D20708F02EC10F2EF4EFEF2EF1E0FF2EF8
:100E0000F02DA1E088349A0708F05EC00E94AD037F
:100E100086E965EA0E941A0480911F0290912002DF
:100E2000B1E088349B0708F04FC01C2F0D2F21E044
:100E3000C039D20708F048C00E94FD024091230249
:100E40005091240281E061E023E030E00E94ED0156
:100E5000409121025091220281E065E023E030E0E0
:100E60000E94ED0140911F025091200281E06AE052
:100E700023E030E00E94ED0182E061E0412F502F3D
:100E800023E030E00E94ED0180911502843140F4AE
:100E900080911602853120F480911402853120F072
:100EA0000E941E05E70110C0219780911F029091BA
:100EB0002002A1E088349A0738F41C2F0D2FB1E0EE
:100EC000C039DB0708F4B8CF80911F02909120024F
:100ED0008954914021E08337920708F05EC00E9458
:100EE000AD038AEA6CE80E941A0480911F02909177
:100EF0002002A1E089349A0708F44FC01C2F0D2F5F
:100F0000B1E0C039DB0708F048C04091230250919E
:100F1000240281E061E023E030E00E94ED01409195
:100F200021025091220281E065E023E030E00E943E
:100F3000ED0140911F025091200281E06AE023E020
:100F400030E00E94ED0182E061E0412F502F23E06C
:100F500030E00E94ED010E94FD0280911502843173
:100F600040F480911602853120F48091140285317D
:100F700020F00E941E05E70110C0219780911F02FA
:100F80009091200221E08934920738F01C2F0D2F18
:100F900081E0C039D80708F4B8CF80911F02909142
:100FA0002002A2E08C3B9A0708F053C0B1E08834DD
:100FB0009B0739F40E94AD038FEA65EA0E941A0488
:100FC0002197409123025091240281E061E023E0C7
:100FD00030E00E94ED01409121025091220281E017
:100FE00065E023E030E00E94ED0140911F02509146
:100FF000200281E06AE023E030E00E94ED0182E01F
:1010000061E0AE0123E030E00E94ED018091150225
:10101000843140F480911602853120F480911402CD
:10102000853118F00E941E0514C00E941F040E9402
:10103000FD0280911F029091200220910F023091B9
:1010400010028217930728F421E0C039D20708F470
:10105000D8CE0E94D9008FEF9FEFA8E0815090403A
:10106000A040E1F700C000000E94DD008FEF9FEF7D
:10107000A8E081509040A040E1F700C000000E942D
:10108000BD03DF91CF911F910F91FF90EF900895D5
:10109000EF92FF920F931F93CF93DF93EC010E9487
:1010A000FD020E941F04809123029091240220914E
:1010B0000F02309110028217930708F02FC121E030
:1010C000C039D20708F02AC10F2EF4EFEF2EF1E05D
:1010D000FF2EF02DA1E088349A0708F05EC00E9430
:1010E000AD038AEA6CE80E941A0480912302909171
:1010F0002402B1E088349B0708F04FC01C2F0D2F4D
:1011000021E0C039D20708F048C00E94FD0240919A
:1011100023025091240281E061E023E030E00E944C
:10112000ED01409121025091220281E065E023E02F
:1011300030E00E94ED0140911F025091200281E0B9
:101140006AE023E030E00E94ED0182E061E0412F9F
:10115000502F23E030E00E94ED0180911502843190
:1011600040F480911602853120F48091140285317B
:1011700020F00E941E05E70110C0219780912302F4
:1011800090912402A1E088349A0738F41C2F0D2F87
:10119000B1E0C039DB0708F4B8CF80912302909109
:1011A00024028954914021E08337920708F05AC005
:1011B0000E94AD0386E965EA0E941A044091230269
:1011C0005091240281E04934580708F44BC01C2F89
:1011D0000D2F91E0C039D90708F044C081E061E0EB
:1011E00023E030E00E94ED01409121025091220263
:1011F00081E065E023E030E00E94ED0140911F02B4
:101200005091200281E06AE023E030E00E94ED018D
:1012100082E061E0412F502F23E030E00E94ED0199
:101220000E94FD0280911502843140F480911602E3
:10123000853120F480911402853120F00E941E0532
:10124000E70110C021974091230250912402A1E0B0
:1012500049345A0738F01C2F0D2FB1E0C039DB0795
:1012600008F4BCCF809123029091240222E08C3BB1
:10127000920708F053C0A1E088349A0739F40E941D
:10128000AD038FEA65EA0E941A0421974091230278
:101290005091240281E061E023E030E00E94ED0102
:1012A000409121025091220281E065E023E030E08C
:1012B0000E94ED0140911F025091200281E06AE0FE
:1012C00023E030E00E94ED0182E061E0AE0123E026
:1012D00030E00E94ED0180911502843140F480914C
:1012E0001602853120F480911402853118F00E9495
:1012F0001E0514C00E941F040E94FD02809123025B
:101300009091240220910F023091100282179307CE
:1013100028F4B1E0C039DB0708F4DCCE0E94D90024
:101320008FEF9FEFA8E081509040A040E1F700C010
:1013300000000E94DD008FEF9FEFA8E081509040F9
:10134000A040E1F700C000000E94BD03DF91CF91F3
:101350001F910F91FF90EF90089584E690E00E9416
:10136000F0050E942F040E94AD038FEF9FEFA8E0CD
:1013700081509040A040E1F700C000000E942F047F
:101380000E94B1038FEF9FEFA1E181509040A040F8
:10139000E1F700C000000E94BD038FEF9FE7A4E0CB
:1013A00081509040A040E1F700C000000E94C806B4
:1013B0000E94820608950E94AD038FEA6FEA0E94A0
:1013C0001A048FEF9FEFA9E581509040A040E1F70C
:1013D00000C000000E94BD038DE290E00E94DF0685
:1013E00086EE66EE0E941A040E942F040E942F04CB
:1013F0000E94AD038FEF9FEFA1E181509040A0408C
:10140000E1F700C000000895CF93DF93D0E00E9481
:101410001F040E94FD0281E061E043E00E94A902F6
:1014200081E065E042E00E94A90281E069E041E0DC
:101430000E94A902809123029091240221E0843F1E
:101440009207D8F420911F023091200241E0243FFE
:10145000340798F48333910580F00E94E10081E025
:101460000E94590182E061E041E050E021E030E07B
:101470000E94ED010E94BD0352C18091150290E0CF
:101480008531910544F00E94AD038CED6CED0E9416
:101490001A04C1E001C0CD2F8091160290E0853181
:1014A00091050CF477C08091150290E0853191058B
:1014B0003CF18091140290E0853191050CF182E0BD
:1014C00061E00E94CD0180E092E00E94BE010E9496
:1014D000BD030E94D9008FEF9FE7A6E181509040A5
:1014E000A040E1F700C000000E94DD008FEF9FE701
:1014F000A6E181509040A040E1F700C000000FC17C
:10150000CC2309F047C00E94B50382E862E80E943C
:101510001A040E941F040E94FD02809123029091F0
:101520002402A1E0843F9A07F0F483339105D8F0B8
:1015300080911F0290912002B1E0843F9B0798F4B4
:101540008333910580F081E00E94590182E061E0DF
:1015500042E050E021E030E00E94ED010E94E10015
:101560000E94BD0317C08091160290E0843191055E
:1015700084F68091150290E08531910554F28091B6
:10158000140290E08431910524F681E00E94590113
:101590000E94BD038091140290E0853191050CF406
:1015A00044C0CC2309F041C00E94B90382E862E83C
:1015B0000E941A040E941F040E94FD0280912302CF
:1015C0009091240221E0843F9207D8F4833391055F
:1015D000C0F080911F029091200241E0843F940767
:1015E00080F48333910568F082E061E043E050E0ED
:1015F00021E030E00E94ED010E94E1000E94BD0365
:1016000014C08091160290E0843191059CF680917F
:10161000150290E0853191056CF28091140290E002
:10162000843191053CF60E94BD038091160290E042
:10163000853191051CF1C13009F50E94BD0382E09E
:1016400061E00E94CD0184E092E00E94BE010E9410
:10165000D9008FEF9FE7A6E181509040A040E1F7CD
:1016600000C000000E94DD008FEF9FE7A6E18150DF
:101670009040A040E1F700C0000051C080911402EA
:1016800090E0853191051CF1C13009F50E94BD0340
:1016900082E061E00E94CD0189E092E00E94BE01FB
:1016A0000E94D9008FEF9FE7A6E181509040A040B3
:1016B000E1F700C000000E94DD008FEF9FE7A6E188
:1016C00081509040A040E1F700C0000028C00E9477
:1016D000FD028091230290912402A1E0843F9A07A9
:1016E00008F095CE8333910508F491CE80911F02C6
:1016F00090912002B1E0843F9B0708F088CE8333AD
:10170000910508F484CE82E061E044E050E021E0FD
:1017100030E00E94ED010E94E1000E94BD03DF91D4
:10172000CF9108950E942F0486E490E00E9448081B
:101730000E942F0408950E94FD020E941F048091C0
:101740001502843108F0C8C080911602843108F077
:10175000C3C080911402843108F0BEC0809123027E
:101760009091240221E088349207B0F50E94AD03E5
:101770008EEB65EA0E941A04809123029091240264
:10178000A1E088349A0740F50E94FD0240912302AF
:101790005091240281E061E023E030E00E94ED01FD
:1017A000409121025091220281E065E023E030E087
:1017B0000E94ED0140911F025091200281E06AE0F9
:1017C00023E030E00E94ED018091230290912402F9
:1017D000B1E088349B07C0F28091230290912402EB
:1017E0008954914021E08337920790F50E94AD0320
:1017F0008AEA69EB0E941A04409123025091240264
:1018000081E04934580720F181E061E023E030E0D5
:101810000E94ED01409121025091220281E065E099
:1018200023E030E00E94ED0140911F025091200220
:1018300081E06AE023E030E00E94ED010E94FD02B9
:10184000409123025091240291E049345907E0F677
:101850008091230290912402A1E0843F9A0718F01E
:101860000E94E10039C0B1E088349B0731F40E9446
:10187000AD038EEB6EEB0E941A044091230250914F
:10188000240281E061E023E030E00E94ED0140911C
:1018900021025091220281E065E023E030E00E94C5
:1018A000ED0140911F025091200281E06AE023E0A7
:1018B00030E00E94ED010E941F040E94FD02809111
:1018C0001502843148F480911602843128F4809105
:1018D0001402843108F442CF0E94D9008FEF9FEFA9
:1018E000A8E081509040A040E1F700C000000E94B5
:1018F000DD008FEF9FEFA8E081509040A040E1F71E
:1019000000C000000E94BD0308958AE590E00E9497
:101910000F040E94DB09089584E690E00E940F0402
:101920000E942F040E94AD0382E393E7A9E0815057
:101930009040A040E1F700C000C00E9482060E94D3
:10194000940689E690E00E940F040E94A60608957E
:1019500084E190E00E94480884E690E00E94F0054F
:101960000E94AD038FEF9FEFACE281509040A0400A
:10197000E1F700C000000E942F040E94AD038FEF2A
:101980009FEFA1E181509040A040E1F700C000002E
:101990008FE590E00E94F0050E94C80608950E941D
:1019A00082068AE590E00E94F0050E94B1038FEF65
:1019B0009FE7A4E081509040A040E1F700C0000004
:1019C0008FE590E00E94F0050E94A60608958CE63F
:1019D00090E00E940F040E94040A0E94AD038FEF62
:1019E0009FE7A8E281509040A040E1F700C00000CE
:1019F0000E94BD038AE590E00E940F048EE190E012
:101A00000E94DF060E942F040E94AD038FEF9FEF1C
:101A1000A1E181509040A040E1F700C000000E9489
:101A2000AD09089584EB90E00E94F0050E942F0418
:101A30000E94AD038FEF9FEBAFE081509040A0403C
:101A4000E1F700C000000E9482060E9494068FE524
:101A500090E00E940F040E94A60608958FE590E092
:101A60000E94F0050E942F040E94AD038FEF9FEFAC
:101A7000A1E181509040A040E1F700C000008AE55C
:101A800090E00E940F0408950E94920B0E94AD0303
:101A90008FEF9FEFA1E181509040A040E1F700C09F
:101AA00000008FE590E00E94F0050E94AD038FEFEB
:101AB0009FE7A3E481509040A040E1F700C0000000
:101AC00085E190E00E94DF0684E690E00E940F042A
:101AD0000E94AD038FEF9FE7A8E281509040A040A5
:101AE000E1F700C000000E942F040E94AD038FEFB9
:101AF0009FE3ABE081509040A040E1F700C00000C0
:101B000084E690E00E940F040E94C80608950E9497
:101B100082068AE590E00E940F040E94B1038FEFD5
:101B20009FE7A4E081509040A040E1F700C0000092
:101B30008EE690E00E940F040E94A6068FE590E0DA
:101B40000E94F0050E94040A0E94AD038FEF9FEFF0
:101B5000ACE281509040A040E1F700C0000084E674
:101B600090E00E94F0058CE390E00E9448080E94FB
:101B70002F040E94AD038FEF9FEFA1E181509040B1
:101B8000A040E1F700C000008FE590E00E940F0444
:101B90000E94DB090E94AD09089584EB90E00E9449
:101BA000F0050E942F040E94AD038FEF9FEFA8E085
:101BB00081509040A040E1F700C000000E942F0437
:101BC0000E94AD038FEF9FE7ADE081509040A040B1
:101BD000E1F700C000000E942F048FEF9FE7ADE007
:101BE00081509040A040E1F700C000000E942F0407
:101BF0008FEF9FE7ADE081509040A040E1F700C03B
:101C000000000E94AD038FEF9FE7ADE08150904050
:101C1000A040E1F700C000000E9482060E949406E6
:101C200084E690E00E940F040E94A60608958EE6C6
:101C300090E00E940F040E942F040E94AD038FEFDA
:101C40009FEFA8E081509040A040E1F700C0000065
:101C50000E942F040E94AD038FEF9FEFA1E18150FE
:101C60009040A040E1F700C000008FE590E00E94A6
:101C7000F0050E94920B0E94AD038FEF9FEBAFE047
:101C800081509040A040E1F700C000008AE590E05C
:101C90000E940F040E94AD038FEF9FEFACE28150D2
:101CA0009040A040E1F700C000008EE190E00E946B
:101CB000DF068AE590E00E940F040E94AD038FEFDB
:101CC0009FEFACE281509040A040E1F700C00000DF
:101CD0000E942F040E94AD038FEF9FE7ADE081507B
:101CE0009040A040E1F700C000008AE590E00E942B
:101CF0000F040E94C806089584E690E00E940F0435
:101D00000E94040A0E945E060E94AD038FEF9FEFBF
:101D1000A5E381509040A040E1F700C0000084E6B8
:101D200090E00E94F0050E949B0B08950E940F0115
:101D30000E947A020E947E030E948F030E949203F7
:101D40000E94D6000895F8940E94960E0E94FB050A
:101D50000E9463030E9481020E9495030E94A403D3
:101D6000789408958EE690E00E940F040E942F045C
:101D70000E94AD038FEF9FEFA1E181509040A04002
:101D8000E1F700C000008AE590E00E94F0050E94A3
:101D90002F0408950E94CD0D0E94170E0E947C0E04
:101DA0000E94F80008950E94120D0E942E0D0E94BC
:101DB000440D0E94870D08950E94850C0E948C0C92
:101DC0000E94B20E0E94A80C0E94CF0C0E94E70C49
:101DD00008950E94A30E0E9416010E947E0108959C
:101DE0000E94E90E0E94DC0E0E94D30E0E94CA0ED1
:101DF00080E090E008955058BB27AA270ED04DC12F
:101E00003ED130F043D120F031F49F3F11F41EF465
:101E100033C10EF4E095E7FB29C1E92F4FD180F3E0
:101E2000BA17620773078407950718F071F49EF5D7
:101E300067C10EF4E0950B2EBA2FA02D0B01B9014E
:101E400090010C01CA01A0011124FF27591B99F030
:101E5000593F50F4503E68F11A16F040A22F232F3C
:101E6000342F4427585FF3CF469537952795A7958C
:101E7000F0405395C9F77EF41F16BA0B620B730B33
:101E8000840BBAF09150A1F0FF0FBB1F661F771FA4
:101E9000881FC2F70EC0BA0F621F731F841F48F459
:101EA000879577956795B795F7959E3F08F0B3CFDF
:101EB0009395880F08F09927EE0F979587950895C9
:101EC0000CD0EBC0E3D040F0DAD030F021F45F3F2B
:101ED00019F0CCC0511115C1CFC0F0D098F399239F
:101EE000C9F35523B1F3951B550BBB27AA276217DE
:101EF0007307840738F09F5F5F4F220F331F441F23
:101F0000AA1FA9F333D00E2E3AF0E0E830D091505A
:101F10005040E695001CCAF729D0FE2F27D0660F47
:101F2000771F881FBB1F261737074807AB07B0E886
:101F300009F0BB0B802DBF01FF2793585F4F2AF09C
:101F40009E3F510568F092C0DCC05F3FECF3983EC5
:101F5000DCF3869577956795B795F7959F5FC9F7F9
:101F6000880F911D9695879597F90895E1E0660F82
:101F7000771F881FBB1F621773078407BA0720F0FB
:101F8000621B730B840BBA0BEE1F88F7E095089564
:101F900004D06894B111B5C0089598D088F09F57C7
:101FA00090F0B92F9927B751A0F0D1F0660F771FA5
:101FB000881F991F1AF0BA95C9F712C0B13081F085
:101FC0009FD0B1E008959CC0672F782F8827B85F15
:101FD00039F0B93FCCF3869577956795B395D9F7E6
:101FE0003EF490958095709561957F4F8F4F9F4FF0
:101FF0000895E89409C097FB3EF4909580957095FC
:1020000061957F4F8F4F9F4F9923A9F0F92F96E944
:10201000BB279395F695879577956795B795F111B9
:10202000F8CFFAF4BB0F11F460FF1BC06F5F7F4F56
:102030008F4F9F4F16C0882311F096E911C0772368
:1020400021F09EE8872F762F05C0662371F096E871
:10205000862F70E060E02AF09A95660F771F881F40
:10206000DAF7880F9695879597F9089597F99F67FE
:1020700080E870E060E008959FEF80EC0895002410
:102080000A941616170618060906089500240A94DD
:1020900012161306140605060895092E0394000C63
:1020A00011F4882352F0BB0F40F4BF2B11F460FFF2
:1020B00004C06F5F7F4F8F4F9F4F089557FD90581B
:1020C000440F551F59F05F3F71F04795880F97FBFC
:1020D000991F61F09F3F79F08795089512161306B6
:1020E0001406551FF2CF4695F1DF08C016161706E5
:1020F0001806991FF1CF869571056105089408951A
:10210000E894BB2766277727CB0197F908950BD072
:10211000C4CFB5DF28F0BADF18F0952309F0A6CFB9
:10212000ABCF1124EECFCADFA0F3959FD1F3950F6B
:1021300050E0551F629FF001729FBB27F00DB11D4B
:10214000639FAA27F00DB11DAA1F649F6627B00DDB
:10215000A11D661F829F2227B00DA11D621F739FC4
:10216000B00DA11D621F839FA00D611D221F749FD2
:102170003327A00D611D231F849F600D211D822F19
:10218000762F6A2F11249F5750408AF0E1F0882360
:102190004AF0EE0FFF1FBB1F661F771F881F91506D
:1021A0005040A9F79E3F510570F060CFAACF5F3F26
:1021B000ECF3983EDCF3869577956795B795F795A0
:1021C000E7959F5FC1F7FE2B880F911D9695879528
:1021D00097F90895FA01EE0FFF1F3096210531059A
:1021E00099F16115710561F48038BFE39B0749F1EE
:1021F00068949038810561F08038BFEF9B0741F00B
:10220000992342F5FF3FE1053105210511F1E894DD
:102210000894E795D901AA2329F4AB2FBE2FF85FC4
:10222000D0F310C0FF5F70F4A695E0F7F73950F0D7
:1022300019F0FF3A38F49F779F930CD00F9007FC6A
:10224000905808953EF018CF60E070E080E89FE37A
:1022500008954FE79F775F934F933F932F939ED0BF
:102260002F913F914F915F9152DF05C019F40EF00D
:10227000FDCE46CF01CF2ADFC8F39638C0F707F866
:102280000F92E8942BE33AEA48EB5FE74EDF0F92B8
:102290000F920F924DB75EB70F92C0D0E4EEF0E010
:1022A00016D04F915F91EF91FF91E595EE1FFF1FC3
:1022B00049F0FE57E0684427EE0F441FFA95E1F716
:1022C0004195550B32D00F9007FE26C00895DF933D
:1022D000CF931F930F93FF92EF92DF927B018C01BC
:1022E000689405C0DA2EEF011EDFFE01E894A59187
:1022F0002591359145915591AEF3EF018EDDFE01AB
:102300009701A801DA9479F7DF90EF90FF900F9191
:102310001F91CF91DF9108959B01AC0160E070E0C7
:1023200080E89FE3CDCDA2CEACC0D0DEE8F3992308
:10233000D9F3940F511DBBF39150504094F059F0D4
:10234000882332F0660F771F881F91505040C1F7E5
:102350009E3F510544F7880F911D9695879597F9F3
:1023600008955F3FACF0983E9CF0BB27869577952B
:102370006795B79508F4B1609395C1F7BB0F58F70F
:1023800011F460FFE8CF6F5F7F4F8F4F9F4FE3CF18
:10239000B8CE0EF076C070CE689468CE97DEC8F3E3
:1023A0009923D1F3C6F3DF93CF931F930F93FF923B
:1023B000C92FDD2788232AF02197660F771F881FF2
:1023C000DAF720E030E040E85FEB9FE3883920F067
:1023D000803E30F021968F770FDDECE0F1E003C016
:1023E0000BDDE9E3F1E073DF8B01BE01EC01FB2EB5
:1023F0006F5771097595771F880B990BFCDD28E1E4
:1024000032E741E35FE38FDEAF2D9801AE01FF902D
:102410000F911F91CF91DF9100DD3FCEFA01DC01DA
:10242000AA0FBB1F9B01AC01BF5728F422273327FB
:10243000442750781FC0B75188F4AB2F002446952D
:1024400037952795011CA395D2F3002069F0220F40
:10245000331F441FB395DAF30DD0CDCC6130710535
:10246000A0E88A07B94630F49B01AC0166277727BC
:1024700088279078309621F02083318342835383DC
:1024800008959F3F31F0915020F487957795679597
:10249000B795880F911D9695879597F90895AA1B72
:1024A000BB1B51E107C0AA1FBB1FA617B70710F03F
:1024B000A61BB70B881F991F5A95A9F78095909571
:0A24C000BC01CD010895F894FFCF90
:1024CA00416C6C004C656674005269676874000C54
:0424DA0003050000F6
:00000001FF
